:020000040800F2
:1000000050040020511300088512000887120008D0
:10001000891200088B1200088D12000800000000F1
:100020000000000000000000000000008F12000827
:1000300091120008000000009312000895120008B9
:1000400075130008791300087D1300088113000858
:1000500085130008A3120008891300088D130008F7
:100060009113000895130008991300089D130008C8
:10007000A1130008A5130008A9130008AD13000878
:10008000B1130008B5130008B9130008BD13000828
:10009000C1130008C5130008C9130008CD130008D8
:1000A000D1130008D5130008D9130008DD13000888
:1000B000E1130008E5130008E9130008ED13000838
:1000C000F1130008F5130008F9130008FD130008E8
:1000D00001140008A51200080514000809140008FE
:1000E0000D14000811140008151400081914000854
:1000F0001D14000821140008251400082914000804
:100100002D140008311400083514000839140008B3
:100110003D14000841140008451400084914000863
:100120004D14000851140008551400085914000813
:100130005D140008611400086514000869140008C3
:100140006D14000871140008751400087914000873
:100150007D14000881140008851400088914000823
:100160008D140008911400089514000899140008D3
:100170009D140008A1140008A51400080000000048
:10018000A9140008AD14000838B5050001D10120FC
:1001900032BD05F13804607818B92070284600F0A7
:1001A000ABFA00F017F800F00DF821F02A01FFE794
:1001B0004161286800F019F8606020206070A0702C
:1001C000002032BD2868016921F49041016128684E
:1001D00041697047242060702868C16821F400518B
:1001E000C160284600F0C8B92068C16841F40051D8
:1001F000C160002070472DE9F843044604F1380738
:100200000D46787820281646984642D1002D14BF16
:10021000002E01203ED097F90000012839D001209E
:100220003870002078602120787000F0F2FAA684FF
:100230008146E68403E0216815F8010B4860E08CF4
:10024000C0B1E08C401EE08400F026F80DD100F033
:100250002AF8B8B928882168C005C00D486020690F
:10026000002814BF6D1CAD1CE9E700F01CF8002845
:10027000E1D007E0CDF800804B460022402100F09D
:1002800014F808B1032005E02020787000203870B1
:1002900000E00220BDE8F2834B46A068CDF8008064
:1002A000B0F5805F7047002280212046DCE010B569
:1002B00000F138039C78202C1ED1002918BF002A99
:1002C00001D1012010BD93F90040012C14D001246C
:1002D0001C7081628285C28500215960222199703B
:1002E0000021197001684A6942F001024A61006800
:1002F000C16841F4907101E0022010BDC16000208E
:1003000010BDC160206841694908490041617047DA
:10031000416921F040014161606B704738B5044686
:1003200023681868D9685A6910F00F0F07D1820640
:100330005CD58A065AD52046BDE83240D6E0D507BE
:1003400002D411F4907F51D0C30705D5CB0503D556
:10035000E36B43F00103E363430705D5D30703D5FC
:10036000E36B43F00203E363830705D5D30703D5AB
:10037000E36B43F00403E363030705D5D20703D51A
:10038000E26B42F00802E263E26B002A69D0800669
:1003900004D5880644BF204600F0A8F820684069CC
:1003A000E16B090701D440061AD5204600F087F812
:1003B0002068416949060FD5FFF7AAFF60B10FF227
:1003C0001D110165606B00F02DFA002849D0606BAB
:1003D000016DBDE834400847204600F044F831BDC7
:1003E000204600F040F80020E06331BD02062AD527
:1003F0000A0628D594F83900212832D1A068B0F532
:10040000805F206A0BD10088C005C00D586020694C
:100410000028206A0CBF801C401C206203E0411CA5
:10042000216200785860E08C401EE08480B2C0B940
:100430002068C16821F08001C1602068C16841F076
:100440004001C16031BD40060BD5480609D5D868CA
:1004500020F04000D860202084F83900204600F0C9
:1004600001F831BD704770472DE9F041069E044602
:100470000D4690461F46206800682840A8420CBFE1
:1004800001200020404517D116F1010FF3D026B10D
:1004900000F0BFF9C01B8642EDD22068C16821F48C
:1004A000D071FFF72EFF04F13800202141708170D8
:1004B00000210170032000E00020BDE8F081016808
:1004C000CA6822F49072CA6001684A6952085200F0
:1004D0004A61202180F83A107047000080B5806B97
:1004E0000021C185C184FFF7BEFF01BD80B590F832
:1004F0003A10222937D18168B1F5805F11D10269A4
:10050000816A002A0268526805D1D205D20D0A809C
:10051000816A891C03E0D2B20A80816A491C816227
:100520000FE001690029816A04D14A1C82620268D5
:10053000526805E04A1C82620268526802F07F023B
:100540000A70C18D491EC18589B251B90168CA6856
:1005500022F4907200F009F8202180F83A1000F09F
:10056000F4F9002002BD022002BDCA6001684A6998
:10057000520852004A6170472DE9F047044664254D
:1005800020680169E26821F4405111430161192694
:10059000C168484A1140A268114322691143626947
:1005A0001143E2691143C1604169A26921F44071BC
:1005B00011434161E3694049404AB3F5004F3AD1E4
:1005C000904218BF88420ED100F007FC074600F0A9
:1005D00004FC804600F001FC814600F0FEFB8246F0
:1005E00000F0FBFB0DE000F0F0FB074600F0EDFB38
:1005F000804600F0EAFB814600F0E7FB824600F00F
:10060000E4FB06FB08F36168490000F059F8DB00E1
:100610003233B3FBF5F3B2FBF1F203F0F803B2FBB4
:10062000F5F25B0000F059F8C0003230B0FBF5F095
:1006300000F0070038E0904218BF88420ED100F069
:10064000CCFB074600F0C9FB804600F0C6FB8146A4
:1006500000F0C3FB824600F0C0FB0DE000F0B5FBEC
:10066000074600F0B2FB804600F0AFFB814600F089
:10067000ACFB824600F0A9FB06FB08F36168890029
:1006800000F01EF81B013233B2FBF1F2B3FBF5F3BD
:10069000B2FBF5F203F0F00300F01FF80001323076
:1006A000B0FBF5F000F00F00216880188860BDE80D
:1006B000F0870000F369FFFF0014014000100140C3
:1006C000B3FBF1F306FB07F206FB09F7B7FBF1F703
:1006D000B7FBF5F705FB1733704703EB02127043C6
:1006E00006FB0AF3B0FBF1F0B3FBF1F3B0FBF5F05E
:1006F00005FB10307047000000682949884200D08F
:10070000704710B586B000200090264C264801683E
:1007100041F00201016001A9006800F002000090B0
:1007200000984020019002200290012003900320B5
:10073000049007200590204600F074FB8020019073
:1007400001A9204600F06EFB06B010BD80B5002068
:1007500000901648016841F01001016000681049DE
:1007600000F0100000900098114801604FF4E13152
:10077000416000218160C16001610C214161002163
:100780008161C161FFF700FD00220121252000F0F9
:1007900055FCBDE80240252000F06DBC00000000C3
:1007A000001001400004024030380240443802404A
:1007B0000400002080B51848016841F40071016010
:1007C000016841F480610160016841F48071016059
:1007D000032000F026FC002000F004F800F085FC67
:1007E000002002BD10B504460C4800684FF47A7131
:1007F000B0FBF1F000F049FC002221464FF0FF3041
:1008000000F01CFC002010BD05480168491C016077
:100810007047034800687047003C02400000002019
:100820004400002090F93510022903D08021416551
:1008300001207047052180F83510006801684908DB
:10084000490001600020704700B593B0002000907F
:100850004648016841F080510160006800F0805016
:1008600000900098002000904148016841F48041C8
:100870000160006800F4804000900098012006901C
:100880004FF48030079002200C904FF480000D90C0
:1008900008200E904FF4A8700F90022010900720AF
:1008A000119006A800F086F80F2001900521022083
:1008B0000290002003904FF4A05004904FF4805019
:1008C000059001A800F0BBF900F055FA00F07AFAA3
:1008D0004FF47A71B0FBF1F000F0D7FB042000F088
:1008E000E8FB002200214FF0FF3000F0A7FB13B01F
:1008F00000BD10B58EB0FFF75DFFFFF7A5FFFFF756
:1009000025FF32220FF274011A4C684600F026FCD3
:10091000684600F04FFC00F011F832220FF27C0123
:10092000684600F01BFC684600F044FC00F006F846
:10093000012211492046FFF7BAFCFEE782B24FF4CC
:100940007A7369462046FFF756BC38B5094C0A4D04
:100950000023012229462046FFF74DFC2946204668
:10096000BDE838400122FFF7A2BC00004038024039
:10097000007000400400002048000020D5E2CAC7F3
:10098000D2BBB8F6B4AEBFDAD6D0B6CFBDD3CAD5D7
:10099000BBD8CFD4CAB5D1E90A000000CAE4C8EB7D
:1009A000CAFDBEDDB2A2D2D4BBD8B3B5BCFCBDE19A
:1009B000CAF80A002DE9F041044682B02078DFF839
:1009C0003054C00743D5A86800F00C00042807D0B5
:1009D000A86800F00C00082809D16868400206D514
:1009E0002868800333D5606888BB012021E16068F6
:1009F000B0F5803F06D0B0F5A02F286806D140F4AE
:100A000080202860286840F4803005E020F48030A1
:100A10002860286820F480202860606858B1FFF7BB
:100A2000F8FE07462868800311D4FFF7F2FEC01BCA
:100A30006528F7D3FAE0FFF7ECFE07462868800345
:100A400005D5FFF7E6FEC01B6528F7D3EEE020785A
:100A5000DFF8A063800718D5A86810F00C0F07D046
:100A6000A86800F00C00082824D16868400221D44E
:100A70002868800702D5E0680128B6D12868216976
:100A800020F0F80040EAC1002860207800073BD53C
:100A90006169DFF8640351B301210160FFF7B9FE1A
:100AA0000746686F80072FD4FFF7B3FEC01B0328EB
:100AB000F7D3BBE0E06868B101203060FFF7A9FE22
:100AC000074628688007D9D4FFF7A3FEC01B032878
:100AD000F7D3ABE03060FFF79CFE0746286880073D
:100AE000D3D5FFF796FEC01B0328F7D39EE0016025
:100AF000FFF78FFE0746686F800705D5FFF789FE71
:100B0000C01B0328F7D391E0207840074FD5002081
:100B10000090DFF8E882286C40F080502864286C50
:100B200000F0805000900098D8F8000040F48070E9
:100B3000C8F80000FFF76DFE0746D8F80000C005B2
:100B400005D4FFF766FEC01B0328F6D36EE0A0684D
:100B5000012805D00528286F06D140F00400286739
:100B6000286F40F0010005E0400840002867286F2A
:100B700020F00400286741F28938A06858B1FFF7D7
:100B800048FE0746286F800711D4FFF742FEC01BBE
:100B90004045F7D34AE0FFF73CFE0746286F800741
:100BA00005D5FFF736FEC01B4045F7D33EE0A069F0
:100BB00000283DD0A96801F00C0108293FF415AFC9
:100BC000022828D100F037F807462868800105D5AB
:100BD000FFF71FFEC01B0328F7D327E0E069216A57
:100BE0000843616A40EA8110A16A891EC903090CA1
:100BF00040EA0140E16A40EA01606860012000F0DB
:100C00001BF807462868800112D4FFF702FEC01BBC
:100C10000328F7D30AE000F00EF8074628688001A1
:100C200006D5FFF7F6FDC01B0328F7D3032000E02D
:100C30000020BDE8F68100203066FFF7EABD2DE90F
:100C4000F8436F4E04463068884600F00F00404578
:100C500002D200F089F862D12078654F800705D56F
:100C6000B868A16820F0F0000843B8602078C00799
:100C70004DD56068012802D13968890305E0022852
:100C800018BF032803D13968890103D447E03968C4
:100C9000890744D5B968890840EA8100B86041F203
:100CA0008939FFF7B6FD0546606801280AD1B868A2
:100CB00000F00C0004282AD0FFF7ABFD401B48458C
:100CC000F5D322E002280AD1B86800F00C00082809
:100CD0001DD0FFF79EFD401B4845F5D315E00328C6
:100CE0000AD1B86800F00C000C2810D0FFF791FD75
:100CF000401B4845F5D308E0B86810F00C0F06D04B
:100D0000FFF787FD401B4845F6D303202AE03068F3
:100D100000F00F00804504D200F026F801D0012039
:100D200020E02078400705D5B868E16820F4E0505D
:100D30000843B8602078000706D5B868216920F418
:100D4000604040EAC100B86000F019F8BA682D4967
:100D5000C2F30312515CC8402B4908600020FFF722
:100D600041FD0020BDE8F28386F80080306800F085
:100D70000F0040457047264901200860704725480C
:100D8000416801F00C01042902D0082902D017E0C3
:100D90002148704701680268520201F03F014CBFD0
:100DA0001D4A1E4AB2FBF1F102680068C0F301401F
:100DB000C2F38812401C51434000B1FBF0F0704771
:100DC000164870471048006870470F480F4A00687F
:100DD00012681349C2F3822206E00B480B4A0068EE
:100DE00012680F49C2F34232515CC840704700009C
:100DF0000038024000004742800E47420070004029
:100E0000003C02403C12000800000020083802406C
:100E10004C0047420438024000127A000024F400DB
:100E20006C1300082DE9F84700226C4BDFF8B08105
:100E3000DFF8B0914FF00F0A012707FA02FC0F68A4
:100E40000CEA0707674540F0C2804C68022C18BFC7
:100E5000122C10D1D40800EB840E02F00704DEF847
:100E60002050A4000AFA04F6B5430E6906FA04F409
:100E70002C43CEF820404FEA420E032405680E7939
:100E800004FA0EF4E44306F00306254006FA0EF6D3
:100E9000354305604D68012D18BF022D03D0112D7B
:100EA00018BF122D0FD18568CE68254006FA0EF6C0
:100EB00035438560456825EA0C064D68C5F3001585
:100EC000954035434560D0F80CC004EA0C0C8C68A2
:100ED00004FA0EFE4EEA0C0CC0F80CC0D1F804C0A7
:100EE0005FEACC0C73D5002400944FEA920CD9F839
:100EF000004044F48044C9F8004002F00305D9F8EA
:100F0000004004F4804400944FEA850E009C58F899
:100F10002C400AFA0EF5AC43334DA84208BF002519
:100F200022D0324DA84208BF01251DD0304DA84225
:100F300008BF022518D02F4DA84208BF032513D0A3
:100F40002D4DA84208BF04250ED02C4DA84208BF45
:100F5000052509D02A4DA84208BF062504D0294DF1
:100F6000A8420CBF0725082505FA0EFE4EEA040428
:100F700048F82C406FEA070C1C680CEA040E4C6819
:100F8000E40348BF47EA0E0EC3F800E05C680CEAD1
:100F9000040E4C68A40348BF47EA0E0EC3F804E0F1
:100FA0009C680CEA040E4C68E40248BF47EA0E0E47
:100FB000C3F808E0D3F80CE00CEA0E0CD1F804E01A
:100FC0005FEA8E2E48BF47EA0C0CC3F80CC0521CD7
:100FD000102AFFF431AFBDE8F1870000003C01406A
:100FE000083801404438024000000240000402403A
:100FF00000080240000C02400010024000140240B1
:1010000000180240001C02400901002806D52E4AA3
:1010100000F00F00801800F8041C70472B4A815420
:1010200070472B490A684FF6FF031A4000F007008B
:1010300042EA0020274A10430860704738B5244B25
:101040001B68C3F30223C3F10704052C28BF042443
:101050001D1D072D34BF0023DB1E012505FA04F4F6
:10106000641E2140994005FA03F35B1E1A401143A8
:10107000BDE83440C8E7012100F01F029140164A44
:10108000FFE7400942F82010704710B5401EB0F14C
:10109000807F01D3012010BD104C60600F214FF004
:1010A000FF30FFF7B1FF0020A06007202060002084
:1010B00010BD0A49042808680CBF40F0040020F065
:1010C000040008607047000018ED00E000E400E054
:1010D0000CED00E00000FA0500E100E010E000E0A7
:1010E00080B500F001F801BD704780B50320FFF71F
:1010F00098FF002200216FF00B00FFF79FFF0022F6
:1011000000216FF00A00FFF799FF002200216FF025
:101110000900FFF793FF002200216FF00400FFF7A2
:101120008DFF002200216FF00300FFF787FF0022F0
:1011300000216FF00100FFF781FF002200214FF036
:10114000FF30FFF77BFF002200210520FFF776FF2D
:10115000BDE802400520FFF78EBF0000103A07D31C
:1011600030B4B1E83810103AA0E83810F9D230BCE9
:10117000530724BFB1E80810A0E8081044BF51F895
:10118000043B40F8043BD20724BF31F8022B20F87F
:10119000022B44BF0B7803707047083A07D3B1E8BD
:1011A0000810083A40F8043B40F804CBF7D2530744
:1011B000E4E7000000F10103810704D010F8011BEF
:1011C00089B18107FAD10268B2F10131914311F07E
:1011D000803F04BF50F8042FF6E710F8011B11B14F
:1011E00010F8011BFBE7C01A704700000E480F4AB9
:1011F000016841F4700101600D48016841F001018E
:10120000016000218160016811400160094941606D
:10121000016821F4802101600021C1604FF000606D
:10122000054908607047000088ED00E0FFFFF6FE0A
:10123000003802401030002408ED00E000000000FB
:1012400000000000010203040607080930B5016828
:1012500042688468091801EB5203D20748BF4C4426
:101260000C30994200D130BD11F9012B11F8015B0E
:10127000002A04F8015B02D5521CF9D1F1E7521E95
:10128000F4D5EEE77047FEE7FEE7FEE7FEE77047BE
:101290007047704780B5FFF7B7FABDE80140FFF728
:1012A0001FBF70470148FFF739B800000400002055
:1012B00010B5074979441831064C7C44163404E0D3
:1012C0000A68081D511888470146A142F8D110BD8F
:1012D0002C000000380000004EF68851CEF20001CC
:1012E000086840F470000860BFF34F8FBFF36F8F42
:1012F0004FF00070E1EE100A7047000051FFFFFF51
:10130000B00100000C0000000000002000F00BF80D
:10131000002801D0FFF7CCFF0020C046C046FFF7F1
:10132000E8FA00F002F80120704700F001B8000070
:101330000746384600F002F8FBE7000080B5C046DB
:10134000C046024A11001820ABBEFBE7260002008F
:101350000148804701480047ED110008611300086B
:10136000C046C046FFF7B8FFFFF7D0FF00000000FF
:1013700001020304FFF7FEBFFFF7FEBFFFF7FEBF4A
:10138000FFF7FEBFFFF7FEBFFFF7FEBFFFF7FEBF91
:10139000FFF7FEBFFFF7FEBFFFF7FEBFFFF7FEBF81
:1013A000FFF7FEBFFFF7FEBFFFF7FEBFFFF7FEBF71
:1013B000FFF7FEBFFFF7FEBFFFF7FEBFFFF7FEBF61
:1013C000FFF7FEBFFFF7FEBFFFF7FEBFFFF7FEBF51
:1013D000FFF7FEBFFFF7FEBFFFF7FEBFFFF7FEBF41
:1013E000FFF7FEBFFFF7FEBFFFF7FEBFFFF7FEBF31
:1013F000FFF7FEBFFFF7FEBFFFF7FEBFFFF7FEBF21
:10140000FFF7FEBFFFF7FEBFFFF7FEBFFFF7FEBF10
:10141000FFF7FEBFFFF7FEBFFFF7FEBFFFF7FEBF00
:10142000FFF7FEBFFFF7FEBFFFF7FEBFFFF7FEBFF0
:10143000FFF7FEBFFFF7FEBFFFF7FEBFFFF7FEBFE0
:10144000FFF7FEBFFFF7FEBFFFF7FEBFFFF7FEBFD0
:10145000FFF7FEBFFFF7FEBFFFF7FEBFFFF7FEBFC0
:10146000FFF7FEBFFFF7FEBFFFF7FEBFFFF7FEBFB0
:10147000FFF7FEBFFFF7FEBFFFF7FEBFFFF7FEBFA0
:10148000FFF7FEBFFFF7FEBFFFF7FEBFFFF7FEBF90
:10149000FFF7FEBFFFF7FEBFFFF7FEBFFFF7FEBF80
:1014A000FFF7FEBFFFF7FEBFFFF7FEBFFFF7FEBF70
:0614B000020024F4BA0062
:04000005080013617B
:00000001FF
