:020000040800F2
:10000000F0120020A101000827120008B311000817
:1000100025120008E1020008D51B000800000000BE
:100020000000000000000000000000002D12000889
:10003000E302000800000000291200082F12000847
:10004000BB010008BB010008BB010008BB010008A0
:10005000BB0100082B120008BB010008BB0100080F
:10006000BB010008BB010008BB010008BB01000880
:10007000BB010008BB010008BB010008BB01000870
:10008000BB010008BB010008BB010008BB01000860
:10009000BB010008BB010008BB010008BB01000850
:1000A000BB010008BB010008BB010008BB01000840
:1000B000BB010008BB01000831130008BB010008A8
:1000C000BB010008BB010008BB010008BB01000820
:1000D000BB0100088D1B0008BB010008BB01000824
:1000E000BB010008BB010008BB010008BB01000800
:1000F000BB010008BB01000865130008BB01000834
:10010000BB010008BB010008BB010008BB010008DF
:10011000BB010008BB010008BB010008BB010008CF
:10012000BB010008BB010008BB010008BB010008BF
:10013000BB010008BB010008BB010008BB010008AF
:10014000BB010008BB010008BB010008BB0100089F
:10015000BB010008BB010008BB010008BB0100088F
:10016000BB010008BB010008BB010008BB0100087F
:10017000BB010008BB010008BB0100080000000033
:10018000BB010008BB010008DFF810D000F05CF8EC
:100190000048004799200008AFF30080F0120020CB
:1001A0000648804706480047FEE7FEE7FEE7FEE711
:1001B000FEE7FEE7FEE7FEE7FEE7FEE7D9120008EE
:1001C000890100082DE9F05F0546002092469B4614
:1001D00088460646814640241BE02846414647465D
:1001E000224600F020F853465A46C01A914110D3D7
:1001F00011461846224600F039F82D1A67EB01081F
:100200004F4622460120002100F030F817EB00098C
:100210004E41201EA4F10104DFDC484631462A4647
:100220004346BDE8F09F202A04DB203A21FA02F081
:100230000021704721FA02F3D040C2F12002914020
:100240000843194670470000064C074D06E0E06879
:1002500040F0010394E8070098471034AC42F6D30D
:10026000FFF796FF7831000898310008202A04DB58
:10027000203A00FA02F1002070479140C2F12003B9
:1002800020FA03F319439040704770B58C1810F8AA
:10029000015B15F0070301D110F8013B2A1106D1CB
:1002A00010F8012B03E010F8016B01F8016B5B1EE5
:1002B000F9D12B0705D40023521E0DD401F8013BC0
:1002C000FAE710F8013BCB1A921C03E013F8015B2C
:1002D00001F8015B521EF9D5A142D8D3002070BDB0
:1002E000FEE7704790F83510022903D08021416560
:1002F00001207047052180F835100068016821F061
:10030000010101600020704731B500F01BF905467E
:10031000009CB4F1FF3F00D0641C00F013F9401BB7
:10032000A042FAD338BD00002DE9F84F0022DFF8D3
:100330000082DFF80092DFF800A24FF0030E0F27D3
:10034000012303FA02F50B682B40AB427DD1D1F8B3
:1003500004C0BCF1020F02D0BCF1120F12D14FEA5F
:10036000D20C00EB8C0CDCF820605407E40E07FA8A
:1003700004FB26EA0B06D1F810B00BFA04F4344360
:10038000CCF8204006684FEA420C0EFA0CF4A64363
:1003900091F804B00BF0030B0BFA0CFB4BEA0606CA
:1003A00006604E68012E05D0022E03D0112E01D01A
:1003B000122E11D18668A643D1F80CB00BFA0CFBB3
:1003C0004BEA06068660466826EA05050E79C6F3FE
:1003D0000016964035434560C56825EA04048D68DB
:1003E00005FA0CFC4CEA040CC0F80CC0D1F804C0AF
:1003F0001CF0805F7DD0D8F800C04CF4804CC8F869
:1004000000C0D8F800C00CF4804CCDF800C022F039
:10041000030C0CF1804404F59834D4F808C895070F
:100420002D0F07FA05F62CEA0606A0F1804CBCF564
:10043000003C64D0A0F1804CBCF5013C62D0A0F13E
:10044000804CBCF5023C60D000E052E0A0F1804C52
:10045000BCF5033C5CD0A0F1804CBCF5043C5AD008
:10046000A0F1804CBCF5053C58D0A0F1804CBCF507
:10047000063C56D0A0F1804CBCF5073C54D04FF060
:10048000080C0CFA05FC4CEA060CC4F808C8D9F8AC
:1004900000C02CEA030C4C6814F4803F01D04CEAF5
:1004A000030CC9F800C0254CD4F800C02CEA030C9A
:1004B0004D6815F4003F01D04CEA030CC4F800C0AD
:1004C000DAF800C02CEA030C4C6814F4801F01D049
:1004D0004CEA030CCAF800C0194CD4F800C02CEA4E
:1004E000030C4D6815F4001F01D04CEA030CC4F84E
:1004F00000C0521C102AFFF423AFBDE8F88F4FF064
:10050000000CBEE74FF0010CBBE74FF0020CB8E760
:100510004FF0030CB5E74FF0040CB2E74FF0050CB9
:10052000AFE74FF0060CACE74FF0070CA9E700006F
:1005300044380240003C0140083C0140043C01407A
:100540000C3C01400148006870470000000000209A
:1005500002480168491C016070470000000000204B
:1005600010B50B48016841F400710160016841F465
:1005700080610160016841F480710160032000F036
:10058000A7F8002000F006F800F018F8002010BDD1
:10059000003C024010B5044607484FF47A720068E8
:1005A000B0FBF2F000F04CFC00222146501E00F09F
:1005B0005BF8002010BD00000400002008B52248B0
:1005C000016841F480410160006800F480400090BF
:1005D0001E48016841F080510160006800F08050C1
:1005E0000090032000F074F8002211466FF00B0019
:1005F00000F03AF8002211466FF00A0000F034F8DB
:10060000002211466FF0090000F02EF8002211467A
:10061000501F00F029F800221146101F00F024F8A6
:1006200000221146901E00F01FF800221146501EB5
:1006300000F01AF800221146052000F015F8BDE878
:100640000840052000F004B8443802404038024019
:1006500000F01F01012202FA01F14009800000F1BF
:10066000E020C0F80011704710B4184B1B68C3F3AA
:100670000223C3F1070CBCF1040F01D94FF0040CA5
:100680001C1D072C01D2002300E0DB1E012404FA0C
:100690000CFCACF1010C0CEA0101994004FA03F3E3
:1006A0005B1E1A401143002808DA00F00F0000F129
:1006B000E020090180F8141D10BC704700F1E02013
:1006C000090180F8001410BC704700000CED00E038
:1006D00000F00700064A11684FF6FF03194041EA8F
:1006E000002040F0FD7040F0806010607047000016
:1006F0000CED00E02DE9F05F04460E46DFF8D091E6
:10070000D9F80000F7B200F00F00B0420AD289F821
:100710000070D9F8000000F00F00B04202D00120B4
:10072000BDE8F09F2078DFF8AC8110F0020F07D011
:10073000D8F80000A16820F0F0000843C8F80000D5
:10074000207810F0010F51D060686349012808D06B
:1007500002280DD003280BD0096811F0020F2ED00B
:100760000AE0096811F4003F06D10120BDE8F09FBE
:10077000096811F0007F1FD0D8F8001021F00301A4
:100780000843C8F80000FFF7DDFE0546606841F247
:10079000883A012816D0022829D003283CD0D8F85E
:1007A000000010F00C0F51D0FFF7CCFE401B50455D
:1007B00047D90320BDE8F09F0120BDE8F09F01204C
:1007C000BDE8F09FD8F8000000F00C0004283DD0F0
:1007D000FFF7B8FE401B504502D90320BDE8F09F4B
:1007E000D8F8000000F00C000428F1D12EE0D8F871
:1007F000000000F00C00082828D0FFF7A3FE401BE3
:10080000504502D90320BDE8F09FD8F8000000F061
:100810000C000828F1D119E0D8F800004FF00C0BBB
:100820003BEA000012D0FFF78DFE401B504502D975
:100830000320BDE8F09FD8F800003BEA0000F2D1A9
:1008400004E0D8F8000010F00C0FADD1D9F800008A
:1008500000F00F00B0420AD989F80070D9F8000002
:1008600000F00F00B04202D00120BDE8F09F2078D8
:1008700010F0040F07D0D8F80000E16820F4E05031
:100880000843C8F80000207810F0080F08D0D8F806
:100890000000216920F4604040EAC100C8F800006F
:1008A00000F058F8D8F80010F02292FAA2F201F005
:1008B000F001B2FA82F2D140084A515CC8400849BE
:1008C00008600020FFF766FE0020BDE8F09F0000F2
:1008D000003C02400838024000380240FC3000086A
:1008E0000400002001490120C8647047000047420D
:1008F00001480068704700000400002000B5FFF7C1
:10090000F7FF074909684FF4E05292FAA2F201F4A6
:10091000E051B2FA82F2D140024A515CC84000BDB7
:10092000083802400C31000800B5FFF7E1FF074925
:1009300009684FF4604292FAA2F201F46041B2FAFF
:1009400082F2D140024A515CC84000BD08380240E2
:100950000C31000810B41F48006810F00C011E484C
:100960001BD04FEA600C042916D0082915D11B4A68
:10097000116801F03F01136813F4800F47F6C0734C
:100980000DD0BCFBF1F01168194093FAA3F3B3FA50
:1009900083F3D94048430CE0604610BC7047B0FB7D
:1009A000F1F01168194093FAA3F3B3FA83F3D94035
:1009B000484311684FF4403292FAA2F201F44031F8
:1009C000B2FA82F2D140491C4900B0FBF1F010BCF0
:1009D00070470000083802400024F4000438024048
:1009E0002DE9F84F0446DFF81C842078A8F10407AD
:1009F00010F0010FA7F1040560D0D8F8000000F056
:100A00000C00042809D0D8F8000000F00C000828D9
:100A10000DD1386810F4800F09D0286810F4003F19
:100A20004CD06068002849D10120BDE8F88F60688B
:100A3000B0F5803F14D0B0F5A02F16D0286820F470
:100A400080302860286820F480202860606810B317
:100A5000FFF778FD0646286810F4003F0ED02DE021
:100A6000286840F480302860F0E7286840F480204F
:100A70002860286840F480302860E7E7FFF762FDCF
:100A8000801B642802D90320BDE8F88F286810F481
:100A9000003FF3D012E0FFF755FD0646286810F43A
:100AA000003F0BD0FFF74EFD801B642802D90320C6
:100AB000BDE8F88F286810F4003FF3D12078DFF804
:100AC000489310F0020F4FF0000663D0D8F80000F2
:100AD0004FF0F80B10F00C0F16D0D8F8000000F013
:100AE0000C00082803D1386810F4800F0CD0E0689F
:100AF000C8B30120C9F80000FFF724FD824628682A
:100B000010F0020F16D022E0286810F0020F05D076
:100B1000E068012802D00120BDE8F88F28689BFA20
:100B2000ABF22169B2FA82F220F0F800914008435A
:100B300028602FE0FFF706FDA0EB0A00022802D98B
:100B40000320BDE8F88F286810F0020FF2D0286863
:100B50009BFAABF22169B2FA82F220F0F8009140E0
:100B60000843286016E0FFE7C9F80060FFF7EAFCD9
:100B70008246286810F0020F0CD0FFF7E3FCA0EBD0
:100B80000A00022802D90320BDE8F88F286810F077
:100B9000020FF2D1207810F0080F34D09B48DFF814
:100BA00070B26169C1B101210160FFF7CBFC8246DF
:100BB000DBF8000010F0020F25D1FFF7C3FCA0EB1B
:100BC0000A00022802D90320BDE8F88FDBF80000F4
:100BD00010F0020FF1D016E00660FFF7B3FC82467A
:100BE000DBF8000010F0020F0DD0FFF7ABFCA0EB1C
:100BF0000A00022802D90320BDE8F88FDBF80000C4
:100C000010F0020FF1D1207810F0040F43D081488A
:100C1000016841F080510160006800F08050009050
:100C2000DFF8F4B1DBF8000040F48070CBF800008E
:100C3000FFF788FC8246DBF8000010F4807F0DD1BE
:100C4000FFF780FCA0EB0A00022802D90320BDE8D0
:100C5000F88FDBF8000010F4807FF1D0A068DFF897
:100C6000BCB1012818D005281DD0DBF8000020F009
:100C70000100CBF80000DBF8000020F00400CBF806
:100C80000000A06868B3FFF75DFC8246DBF8000057
:100C900010F0020F14D03CE0DBF8000040F001003F
:100CA000CBF80000EDE7DBF8000040F00400CBF8E3
:100CB0000000DBF8000040F00100CBF80000E0E7A6
:100CC000FFF740FCA0EB0A0141F28830814202D9D3
:100CD0000320BDE8F88FDBF8000010F0020FEFD022
:100CE00017E0FFF72FFC8246DBF8000010F0020F40
:100CF0000FD0FFF727FCA0EB0A0141F288308142B8
:100D000002D90320BDE8F88FDBF8000010F0020FD5
:100D1000EFD1A069F0B3D8F8001001F00C01082958
:100D20006CD0022810D0C9F86060FFF70BFC0446B5
:100D3000286810F0007F5ED0FFF704FC001B02283B
:100D400055D90320BDE8F88FC9F86060FFF7FAFBBA
:100D50000646286810F0007F0BD0FFF7F3FB801BDE
:100D6000022802D90320BDE8F88F286810F0007F20
:100D7000F3D1216AE0694FF0FF3340EA010247F600
:100D8000C07191FAA1F1606AB1FA81F100FA01F142
:100D9000A06A00E02FE003EB50004FF4403393FAD9
:100DA000A3F3B3FA83F39840084310434FF0706203
:100DB00092FAA2F2E16AB2FA82F2914008433860F4
:100DC0000120C9F86000FFF7BDFB0446286810F059
:100DD000007F10D1FFF7B6FB001B022802D90320C9
:100DE000BDE8F88F286810F0007FF3D003E0286892
:100DF00010F0007FA0D10020BDE8F88F0120BDE8F1
:100E0000F88F00000838024000004742800E474239
:100E10007438024040380240007000407038024090
:100E20004FF0E021042804D0086920F00400086194
:100E30007047086940F0040008617047704700007F
:100E4000401EB0F1807F01D3012070474FF0E021B8
:100E50004861044AF0201070002088610720086172
:100E60000020704723ED00E010B5FFF7E7FF10BD4D
:100E700010B50446002C03D094F8390010B107E0F7
:100E8000012010BD002084F83800204600F00CF846
:100E9000022084F83900211D206800F099FB012010
:100EA00084F83900002010BD81B00068A0F18041B5
:100EB000B1F5823108D10548016841F002010160B5
:100EC000006800F00200009001B070474438024012
:100ED0000168CA6842F00102CA600068016841F016
:100EE0000101016000207047704790F8391090F8B8
:100EF0003A0008437047000010B5044622681068A5
:100F0000D168526900F00F03002B0AD110F0200FB6
:100F100007D011F0200F04D02046BDE8104000F0AB
:100F200016BC002B6BD002F0010301F4907C53EA55
:100F30000C0364D010F0010F06D011F4807F03D0B1
:100F4000E36B43F00103E36310F0040F06D012F0EB
:100F5000010F03D0E36B43F00203E36310F0020FD1
:100F600006D012F0010F03D0E36B43F00403E363F8
:100F700010F0080F06D012F0010F03D0E26B42F020
:100F80000802E263E26B002A2ED010F0200F05D099
:100F900011F0200F02D0204600F0D9FB20684069F4
:100FA000C0F38010E16B11F0080F00D108B32046A8
:100FB00000F0B2FB2068416911F0400F15D0416983
:100FC00021F040014161606B58B118490165606BC7
:100FD000FFF788F9002807D0606B016DBDE810406D
:100FE00008472046FFF780FF10BD2046FFF77CFF33
:100FF00010BD2046FFF778FF0020E06310BD10F021
:10100000800F07D011F0800F04D02046BDE81040BB
:1010100000F088BD10F0400FF0D011F0400FEDD07F
:101020002046BDE8104000F085BB0000091700080D
:1010300070B50446002C04D094F83900002510B196
:1010400006E0012070BD84F83850204600F022F8F8
:10105000242084F839002068C16821F40051C1605F
:10106000204600F0BDFB2068016921F49041016138
:101070002068416921F02A0141612068C16841F47A
:101080000051C160E563202084F8390084F83A00FB
:10109000002070BD10B586B00068A0F18041B1F5A8
:1010A00088311DD10F48016841F0020101600068DC
:1010B00000F00200009040200190022002900120E8
:1010C00003900320049007200590074C01A92046B7
:1010D000FFF72AF98021019101A92046FFF724F9A1
:1010E00006B010BD303802400004024090F83A309B
:1010F000202B01D002207047D1B1CAB190F838300E
:10110000012B17D081628285C2850021C163222212
:1011100080F83A2080F8381001684A6942F00102EC
:101120004A610068C16841F49071C1600020704755
:10113000012070470220704730B40068A0F1804160
:10114000B1F588310DD1154A508810F4004F08D1FF
:101150000B46114610F4804F09780BD00A2902D0B3
:10116000538030BC704740F40040508030BC0CA02D
:1011700000F032BD0D290CD00C4CC0F30D0C04F85E
:101180000C10401C80B25080C728EAD9538030BC74
:10119000704740F48040508030BC70470800002009
:1011A000CAD5B5BDCAFDBEDD0D0A0000AC010020E8
:1011B0007047FEE710B5002201212520FFF754FA01
:1011C000BDE810402520FFF743BA000008B5002114
:1011D0001048026842F010020260006800F010003F
:1011E00000900E480C4A02604FF4E1324260816088
:1011F000C16001610C2242618161C161FFF718FF8A
:10120000012207490548FFF771FFBDE80840FFF7D5
:10121000D1BF000044380240001001406C010020A2
:1012200008000020FEE7704770477047704710B510
:10123000FFF78EF9BDE81040FFF716BE30B593B04A
:1012400000252348016841F080510160006800F0EA
:10125000805000901F48016841F48041016000689F
:1012600000F48040009001200690000407900224C2
:101270000C9480010D9008200E904FF4A8700F90F0
:1012800010940720119006A8FFF7AAFB0F200190E9
:10129000029403954FF4A0500490E00205900521BC
:1012A00001A8FFF727FAFFF71DFBFFF721FB4FF41B
:1012B0007A71B0FBF1F0FFF7C3FD0420FFF7B0FD3A
:1012C00000221146501EFFF7CFF913B030BD0000C9
:1012D00040380240007000400F48016841F470013E
:1012E00001600E48016841F0010101600C4A0021D3
:1012F0001160026822F4102222F080720260031D45
:10130000084A1A60026822F48022026006480160DE
:10131000064958060860704788ED00E00038024032
:1013200008380240103000240C38024008ED00E07C
:1013300010B50A4C2068C06810F0010F09D00848A9
:101340000069804721680020486221686420C862E3
:10135000E06021686FF00100086110BDB00200205C
:10136000740000202DE9F843002500950024DFF8E3
:101370005482D8F80000C16811F0020F70D06FF0ED
:101380000209C0F81090D8F80000416A00918E4E12
:10139000B268BDF8001011444163A6F11C07387A09
:1013A000401C3872387A02285AD13D7296F90100F1
:1013B000B0F1FF3F14D0787801281BD07D70BD704C
:1013C0003078D0B1012203234FF4A0614FF0020C1A
:1013D000012828D0022877D0032840F0EF8074E05D
:1013E000B878012802D07D70BD70E9E73570BD7115
:1013F0007D70E5E73570BD71E2E700221146734864
:1014000000F04AF9D8F80000C16821F00201C1607B
:10141000D8F80000C0F810907D61BD61BD81756194
:10142000BD7100F0CBB87869401C786170780128F4
:1014300009D03869401E3861386990FBF1F401FB2E
:10144000140070B110E03869401C3861386990FBB5
:10145000F1F401FB140038B97889401C788103E06D
:10146000ADE07889401E78817069401C7061B06879
:10147000B96901EB4000716902EB810190FBF1F069
:10148000B168081A84B2B068B96901EB40007169AB
:1014900002EB810190FBF1F201FB1200B861706870
:1014A0007969884204D8F068706186F800C009E064
:1014B0003069A04206DBF0687061BC81306984B29B
:1014C000BD613370BC8179E02BE07869401C7861A4
:1014D0007078012809D03869401E3861386990FB5E
:1014E000F1F201FB120068B10FE03869401C38616D
:1014F000386990FBF1F201FB120030B97889401C89
:10150000788102E07889401E7881306984B2706801
:101510007969884252D8F0687061BC8986F800C049
:101520004CE07869401C78617078012809D03869EE
:10153000401E3861386990FBF1FC01FB1C0068B16A
:101540000FE03869401C3861386990FBF1FC01FB01
:101550001C0030B97889401C788102E07889401EEF
:1015600078817069401C7061B068B96901EB400016
:10157000716902EB810190FBF1F0B168081A84B245
:10158000B068B96901EB4000716902EB810190FB21
:10159000F1F201FB1200B8617069002800DB3570C0
:1015A000387858B1B069A04208DCB0693061B069E0
:1015B00084B24FF0FF307060BD613370B460BDE83D
:1015C000F8830000740200202C0000200004014079
:1015D000F0B402682B4BDFF8B0C02C4D2C4E2D4CD4
:1015E00098420AD0B0F1804F07D0604505D0A8429C
:1015F00003D0B04201D0A04203D122F070024F6864
:101600003A43984228D0B0F1804F25D0604523D08E
:10161000A84221D0B0421FD0A0421DD0A0F1804CE2
:10162000BCF5A03C18D0A0F1804CBCF5A23C13D076
:10163000A0F1804CBCF5A43C0ED0A0F1804CBCF5D0
:10164000C05C09D0A0F1804CBCF5E05C04D0A0F1F6
:10165000804CBCF5005C05D122F44072D1F80CC07E
:101660004CEA020202608A68C2620A688262984298
:1016700001D0A04201D10969016301214161F0BC9F
:1016800070470000000001400004004000080040D6
:10169000000C00400004014001238B40D0F820C022
:1016A0002CEA03030362036A02FA01F1194301629F
:1016B00070470000F8B506460C4600250F4A106832
:1016C00040F004001060106800F004000090032255
:1016D00011461E20FEF7C8FF1E20FEF7B9FF094A7B
:1016E0000748106054609560D66015611046FFF79A
:1016F000BFFBBDE8F8400348FFF7EABB40380240B3
:1017000000080040B002002010B5806B0021C185A8
:10171000C184FFF7E9FB10BD0168CA6822F490722A
:10172000CA6001684A6922F001024A61202180F8FA
:101730003A10704710B50168CA6822F04002CA60CA
:10174000202180F83910FFF733FD002010BD10B5BF
:1017500090F83A10222901D0022010BD8168B1F51D
:10176000805F11D0016919B30168496801F07F02F7
:10177000816A4B1C83620A70C18D491E0904090CE1
:10178000C1851CD0002010BD816A02693AB102688F
:101790005268D2B20A80816A491C8162ECE7026811
:1017A0005268C2F308020A80816A891C8162E3E7F9
:1017B00001684A68816A4B1C83620A70DCE7016831
:1017C000CA6822F49072CA6001684A6922F0010274
:1017D0004A61202180F83A10FFF7AEFC002010BDCE
:1017E0002DE9F04104462068016921F44051E26886
:1017F000114301612068C16821F4037121F414418F
:101800002369A268D4F81CC01A43636943EA0C0335
:101810001A431143C1602068416921F44071A269F3
:1018200011434161E069BC4ABC49BD4D3226B0F567
:10183000004F5ED02068884202D0904240F0128172
:10184000FFF772F800EBC00101EB0010616889003E
:10185000B0FBF1F7FFF768F800EBC00101EB0010F7
:1018600061688900B0FBF1F0A5FB001040096FF042
:101870001801484307EB800006EB0010A5FB0010A1
:10188000400900F0F007FFF74FF800EBC00101EB53
:10189000001061688900B0FBF1F0A5FB0010400961
:1018A00007EB0017FFF740F800EBC00101EB001059
:1018B00061688900B0FBF1F8FFF736F800EBC00172
:1018C00001EB001061688900B0FBF1F0A5FB00108E
:1018D00040096FF01801484308EB800006EB001048
:1018E000A5FB00102168C0F3431038448860BDE8B0
:1018F000F0812068884201D0904259D1FFF714F856
:1019000000EBC00101EB001061684900B0FBF1F091
:10191000A5FB001040090701FFF706F800EBC00126
:1019200001EB001061684900B0FBF1F8FEF7FCFF25
:1019300000EBC00101EB001061684900B0FBF1F061
:10194000A5FB001040096FF01801484308EB800028
:1019500006EBC000A5FB0010400900F0F80007EB03
:101960004007FEF7E1FF00EBC00101EB00106168EA
:101970004900B0FBF1F8FEF7D7FF00EBC00101EB27
:10198000001061684900B0FBF1F0A5FB00104009B0
:101990006FF01801484308EB800006EBC000A5FB80
:1019A00000102168C0F3421038448860BDE8F0811F
:1019B000FEF7A4FF00EBC00101EB001061684900D5
:1019C000B0FBF1F0A5FB001040090701FEF796FF00
:1019D00000EBC00101EB001061684900B0FBF1F8B9
:1019E000FEF78CFF00EBC00101EB001061684900BD
:1019F000B0FBF1F0A5FB001040096FF0180148435F
:101A000008EB800006EBC000A5FB0010400900F0C9
:101A1000F80007EB4007FEF771FF00EBC00101EB98
:101A2000001061684900B0FBF1F8FEF767FF00EBBA
:101A3000C00101EB001061684900B0FBF1F0A5FBAB
:101A4000001040096FF01801484308EB800006EBD6
:101A5000C000A5FB00102168C0F342103844886024
:101A6000BDE8F081FEF74AFF00EBC00101EB00107A
:101A700061688900B0FBF1F7FEF740FF00EBC001A1
:101A800001EB001061688900B0FBF1F0A5FB0010CC
:101A900040096FF01801484307EB800006EB001087
:101AA000A5FB0010400900F0F007FEF727FF00EB50
:101AB000C00101EB001061688900B0FBF1F0A5FBEB
:101AC0000010400907EB0017FEF718FF00EBC001FC
:101AD00001EB001061688900B0FBF1F8FEF70EFF22
:101AE00000EBC00101EB001061688900B0FBF1F070
:101AF000A5FB001040096FF01801484308EB800077
:101B000006EB0010A5FB00102168C0F34310384419
:101B10008860BDE8F0810000001401400010014021
:101B20001F85EB5190F83910212901D00220704710
:101B30008168B1F5805F0CD0016A4A1C02620268BC
:101B400009785160C18C491E0904090CC18410D068
:101B500019E0016A02680988C1F30801516001694E
:101B600019B1016A491C0162ECE7016A891C016232
:101B7000E8E70168CA6822F08002CA600068C168AC
:101B800041F04001C16000207047000010B50F48CF
:101B9000FFF7B2F90D48FFF7A8F9202804D00B4849
:101BA000FFF7A3F92028FAD1012209490748FFF7D6
:101BB0009DFA30B1012206490448FFF797FA002840
:101BC000F8D1BDE810400148FFF796B96C0100203C
:101BD00008000020FEE700000FB4054B10B503A974
:101BE000044A029800F018F810BC5DF814FB0000DD
:101BF000852000080C00002002E008C8121F08C160
:101C0000002AFAD170477047002001E001C1121F7D
:101C1000002AFBD1704700002DE9FF4F8DB00F4621
:101C20000546002606E025280BD0DDE90F12904777
:101C30006D1C761C28780028F5D111B03046BDE81F
:101C4000F08F0024A246A1460122E94900E00443A6
:101C500015F8013F203B02FA03F00842F7D128783B
:101C60002A2810D06FF02F022878A0F1300109291E
:101C700014D80AEB8A0102EB410144F0020400EBA4
:101C8000010A6D1CF0E701CF5FEA000A03D544F4B6
:101C90000054CAF1000A44F002046D1C28782E2872
:101CA00017D115F8010F44F004042A280ED06FF064
:101CB0002F022878A0F1300109290AD809EB8901FF
:101CC00002EB410100EB01096D1CF2E757F8049BA0
:101CD0006D1C28786C280FD006DC4C2817D068289B
:101CE0000DD06A2814D104E0742810D07A280FD1BE
:101CF0000DE044F400140AE044F4801401E044F4DC
:101D000040146978814202D104F580146D1C6D1C69
:101D100028786E281ED00CDC632830D004DC002824
:101D20008BD0582811D19FE0642867D069280CD146
:101D300064E073282DD004DC6F2872D0702804D1A1
:101D400094E075286ED078286DD0DDE90F129047A9
:101D5000761C4BE1C4F30250022806D0032809D0B8
:101D6000042801CF09D0066040E101CFF117C0E996
:101D700000613BE101CF068038E1067036E117F8DB
:101D8000040B8DF8000000208DF80100EB460120C7
:101D900003E057F804BB4FF0FF3061074FF000013C
:101DA00002D40DE008F10101884649450FDA80456B
:101DB000F8DB1BF808100029F4D108E008F1010154
:101DC00088468142FADB1BF808100029F6D1DDE9CC
:101DD0000F23AAEB08008146214600F031F9304478
:101DE00000EB080604E0DDE90F121BF8010B904739
:101DF000B8F10108F7D221464846F2E00A21C4F3BF
:101E000002524FF0000B0891022A04D001CFC117F3
:101E1000032A09D00AE0FF1D27F00707F7E80201AF
:101E200008E02CE01EE01FE000B2C117042A01D137
:101E300040B2C117021E71F1000206DA0023D0EB96
:101E4000030063EB01012D2202E0220504D52B22C1
:101E50008DF82420012203E0E20701D02022F7E7D9
:101E6000904653E00A210BE0102109E010214FF0C9
:101E7000000B44F004044FF00809089103E0082126
:101E80004FF0000B0891C4F30252022A04D001CF94
:101E90000021032A06D006E0FF1D27F00707F7E818
:101EA000020103E080B2042A00D1C0B24FF0000862
:101EB00022072BD52A78702A07D0DDF820C08CF0B5
:101EC000100C5CEA0B0C05D00EE040228DF82420AB
:101ED000012208E050EA010306D030238DF82430B7
:101EE0008DF8252002229046089B83F0080353EAD0
:101EF0000B030BD150EA010201D1620706D5302253
:101F00008DF824204FF00108A9F101092A78582AF8
:101F100004D038A20B9208AA0A920BE03AA2F9E781
:101F20005B46089AFEF74EF90B9B9B5C0A9A521E81
:101F30000A92137050EA0102F2D10A98ADEB000048
:101F400000F1200B600702D524F4803401E04FF04B
:101F50000109D94502DDA9EB0B0000E0002000EBF0
:101F60000B0141440890AAEB010AE00306D4DDE925
:101F70000F232146504600F063F806444FF0000955
:101F800008E009A911F80900DDE90F12904709F1ED
:101F90000109761CC145F4DBE0030CD5DDE90F2314
:101FA0002146504600F04CF8064404E0DDE90F12EB
:101FB00030209047761C0899481E08900029F5DCCF
:101FC00008E00A980A990078491C0A91DDE90F1285
:101FD0009047761CBBF10001ABF1010BF1DC21460F
:101FE0005046DDE90F2300F019F806446D1C21E688
:101FF00009280100303132333435363738396162DF
:1020000063646566000000003031323334353637A2
:102010003839414243444546000000002DE9F04173
:10202000044600251E461746880404D405E03946B8
:102030002020B0476D1C641EF9D52846BDE8F0810C
:102040002DE9F041044600251E469046C80301D5FF
:10205000302700E02027880404D505E041463846B3
:10206000B0476D1C641EF9D52846BDE8F08100001C
:1020700010B504460420FEF7D3FE0148046010BDED
:102080006801002003490A6812F0400FFBD0C2B279
:102090004A60704700100140FEF762FAA820FFF77F
:1020A000E7FFFFF7CBF8FFF791F807484168A82052
:1020B000884706A0FFF790FD4FF47A70FEF724F9E9
:1020C00006A0FFF789FDF7E774000020CDA8D0C572
:1020D000B2E2CAD4A3A10D0A000000007072696EBA
:1020E0007466BFC9D2D4CAB9D3C30D0A00000000B8
:1020F0000068704770B594B0064612AB11AA08A9E3
:10210000304600F003FA002825D113901F4C207DA3
:1021100000281AD904259DF84C10206805EBC10150
:1021200012AB405810AA694600F0F0F9002812D10D
:1021300008A9684600F061FC78B19DF84C00401C8D
:10214000C0B21390217D8142E5D8207D9DF84C10CE
:1021500088420FD1042014B070BD9DF840009DF856
:102160004410884202D9022014B070BD9DF84C0082
:10217000A075EAE713A9304600F08CFA0028F3D1E5
:102180009DF84C00607514B0002070BD74000020F4
:102190002DE9F0439BB0894FBD7D387DA8426FD9B2
:1021A0000421386801EBC50106AB405807AA08A90D
:1021B00000F0ACF908A982A0FFF70EFD00249DF8FD
:1021C0001C0000283BD94FF001090DF14008388B65
:1021D00009FA04F1084218D022217BA0FFF7FCFC89
:1021E000204600F0D7FA384400F1240177A0FFF729
:1021F000F3FC222174A0FFF7EFFC204600F0CAFA9E
:102200003844243048F824000BE0204600F0C2FA9D
:102210003844416A48F82410F87D00B36CA0FFF7F9
:10222000DBFC9DF81C00401E844202D06AA0FFF730
:10223000D3FC601CC4B29DF81C008442C7D367A0C5
:10224000FFF7CAFC00F0F2FA787D0B2847D2DFE8EE
:1022500000F00A10182029313B475565770060A02F
:10226000FFF7BAFCDDE7386850F8350080470646CE
:1022700079E0386850F8351010988847064672E0C3
:102280008CE03868119950F8352010989047064630
:1022900069E03868129A119950F8353010989847CB
:1022A000064660E0386850F835C010A80FC8E0470F
:1022B000064658E014980090386850F835C010A8C9
:1022C0000FC8E04706464EE015991498019100901A
:1022D000386850F835C010A80FC8E047064642E0FD
:1022E000159A14991698019200910290386850F846
:1022F00035C010A80FC8E047064634E0159B149A75
:10230000169917980193009202910390386850F83B
:1023100035C010A80FC8E047064624E0189804907E
:10232000169B159A179914980293019203910090A5
:10233000386850F835C010A80FC8E047064612E0CC
:102340001699199802910590179B189A1599149847
:102350000393049201910090386850F835C010A89A
:102360000FC8E047064600F029FA9DF8180001283A
:1023700017D01CA0FFF730FC97F8EC0000280DD018
:102380001949D7F8F000A1FB0021C9084A4202EB25
:10239000820200EB420215A0FFF71EFC1BB0BDE855
:1023A000F083F87D20B1314618A0FFF715FCE3E774
:1023B000314619A0FFF710FCDEE700007400002092
:1023C0000D0A257328000000256300002573000016
:1023D00030582558000000002C00000029000000A3
:1023E000256C64003B0D0A00CDCCCCCC46756E63E9
:1023F00074696F6E2052756E2054696D653A25645C
:102400002E2531646D730D0A000000003D30582503
:10241000583B0D0A000000003D256C753B0D0A007D
:10242000F0B4002400250026A44603782C2B03D109
:10243000BCF1000F00D10125292B00D013B9BCF14C
:10244000000F2DD016B1222B27D028E0A3F13007A2
:10245000092F15D92D2B13D02B2B11D0313F052F40
:102460000ED92037052F0BD9582B09D0782B07D040
:10247000222B0ED0202B24D02C2B22D0FF260FE095
:1024800075B9612B02D3203B0B7000E00B70491C27
:1024900017E02DB90126B44613E04FF0000C2DB122
:1024A0000020087016702046F0BC7047BCF1000F89
:1024B00007D05C2B02D1401C631CDCB203780B708C
:1024C000491C631CDCB2401CAFE710B4002414703C
:1024D00010E081F800C0401C491C92F800C00CF1CB
:1024E000010C0CF0FF0C82F800C09C4502D310BC1C
:1024F0000120704790F800C0BCF1200F02D0BCF161
:10250000000FE6D10C7010BC002070472DE9FF4F82
:1025100082B0824688469B460024A14600270125BA
:10252000002600225046017800291AD0EC46017896
:10253000202910D002F07F03052B0CD202B9802293
:1025400002F07F03042B01D12A290AD10CF80310D1
:10255000511CCAB201E0852A03D0401C0178002931
:10256000E5D16AB102F07F0200200DF8020047A118
:10257000684600F042FA38B101208BF800000022D2
:102580004FF0000B534615E000208BF80000F6E7F3
:102590005B1C0BF1010000F0FF0B1878202801D024
:1025A0002A2807D1184600F0ADF9282802D02A2899
:1025B00000D0D9461878282801D00028E8D1B9F1F0
:1025C000000F03D00AEB090000F1010A4FF00009E7
:1025D00000216B469AF8000010B1282803D003E0D0
:1025E0004FF001093FE011B1292805D005E004F1C1
:1025F000010C0CF0FF040FE011B122280AD00BE00F
:1026000024B1A4F1010C0CF0FF0401E04FF001092A
:102610004CB301E049B100214CB12C280ED0202848
:1026200017D0282815D06AB111E00121F4E720283D
:1026300016D088F8000008F1010811E00125501CAF
:10264000C2B206E0052E02D29855701CC6B2681CB4
:10265000C5B2012C04D1022D02D10325781CC7B2CA
:102660000AF1010AB6E7012F07D10020985507A10A
:10267000684600F0C2F900B90027049807700020EE
:1026800088F8000006B04846BDE8F08F766F6964B0
:10269000000000002DE9F047B5B002460F460024C7
:1026A00000203B4E002133189976401CC0B20A2806
:1026B000F9D31078282804D0521C1078A0B128280B
:1026C000FAD1551C4FF004094FF0010834AA6946AD
:1026D0002846FFF7A5FE05449DF8D00040B101282B
:1026E00028D0FF2849D144E035B00120BDE8F0876B
:1026F0009DF80000E0B333A9684600F00DF918B169
:1027000035B00220BDE8F087204600F043F83044A1
:1027100033994162308B08FA04F1884330833019D1
:1027200080F81A90601CC4B20A2C26D935B0032058
:10273000BDE8F087684600F076F900F1010A20460E
:1027400000F028F8304400F12401684600F062F9F6
:10275000308B08FA04F108433083301980F81AA04E
:10276000601CC4B20A2C08D935B00320BDE8F0873C
:1027700003E035B00220BDE8F0872878292801D091
:102780000028A3D13C7035B00020BDE8F0870000E0
:1027900074000020024600200021002A0AD9064BBE
:1027A00003EB010C9CF81AC06044C0B2491CC9B2CA
:1027B0009142F5D370470000740000200A48006879
:1027C000016911F0010F094906D0D1F8F0204FF648
:1027D000FF731A44C1F8F020D1F8F020406A104489
:1027E000C1F8F00070470000B00200207400002023
:1027F00010B500EBC00101EB00104FF0FF3101EB11
:10280000800081B24FF47A70FEF754FF0149012035
:10281000C87510BD74000020034601204A1ED2B2C4
:1028200003D35843521ED2B2FBD2704707486FF011
:102830000101026811610268090CD162C16000687F
:10284000002141620248C0F8F0107047B002002039
:10285000740000202DE9F041194D288810F4004F34
:102860002CD0C0B2174900260E54174F1548B9682E
:10287000884704467CB1134800F0DEF8012800D0F8
:102880000446D4B1012C09D0022C0BD0032C0DD05E
:10289000042C12D10EE0F86880470EE00BA0FFF781
:1028A0009BF90AE00CA0FFF797F906E00DA0FFF7EF
:1028B00093F902E00EA0FFF78FF92E80BDE8F081BA
:1028C0000A000020AC01002074000020BAAFCAFD4D
:1028D000B4EDCEF3210D0A00B2CECAFDB4EDCEF3B5
:1028E000210D0A00B2CECAFDCCABB6E0210D0A0024
:1028F000CEB4D5D2B5BDC6A5C5E4B5C4BAAFCAFD80
:10290000210D0A00401C00E0401C0178202901D163
:102910000028F9D1007870472DE9F0430E460024D5
:102920004FF00A0800270146002232600A78A2F11F
:102930003003092B12D903782D2B01D02B2B00D17A
:1029400064B1A2F14103052B08D9582A01D1012C09
:1029500004D00978A9B10120BDE8F083412A01D350
:102960004FF0100802782D2A04D02B2A05D0621CC3
:10297000D4B204E00227401C01E00127401C491C9E
:10298000D4E70546B8F1100F01D094B12AE0032C2A
:1029900002D20220BDE8F0832878302802D168787E
:1029A000582802D00320BDE8F083AD1CA01EC4B29D
:1029B00018E00420BDE8F083601EC4B22878A0F1BE
:1029C0003001092901D8894601E0A0F137092146E3
:1029D0004046FFF721FF316809FB001030606D1C95
:1029E000287810B1002CE9D0E6E7022F02D1306838
:1029F000404230600020BDE8F08304E001207047D1
:102A000032B1401C491C02780B789A42F8D0F5E7A5
:102A10000020704701E0401C491C02780A700278CF
:102A2000002AF8D17047002102781AB1491CC9B2B6
:102A3000401CF9E708467047F0B58DB004461E23E8
:102A40000CAA04A92046FFF740FD019010B10DB07B
:102A50000120F0BD9DF83000271800260C963E4C52
:102A60009DF8300054F8201004A8FFF7C6FF30B1DD
:102A70009DF83000401CC0B20C900728F0D39DF8A0
:102A800030000425354C072880F0CD82DFE800F0C7
:102A900004043C5C6261600031A0FFF79DF831A046
:102AA000FFF79AF83FA0FFF797F84EA0FFF794F8CA
:102AB0005CA0FFF791F86BA0FFF78EF879A0FFF705
:102AC0008BF887A0FFF788F88CA0FFF785F894A013
:102AD000FFF782F898A0FFF77FF89DA0FFF77CF83A
:102AE000A2A0FFF779F8A8A0FFF776F8B4A0FFF747
:102AF00073F8C1A0FFF770F8CCA0FFF76DF8D8A06D
:102B0000FFF76AF800F08CBA15A0FFF765F8E4A0AB
:102B1000FFF762F80C96207D002810D99DF8301040
:102B2000206805EBC1014158EDA0FFF755F89DF86D
:102B30003000401CC0B20C90217D8142EED808A02C
:102B4000FFF74AF800F06CBA05A0FFF745F8CBE1B3
:102B500040E219E2F0E1000048000020740000208B
:102B60000D0A00002D2D2D2D2D2D2D2D2D2D2D2D32
:102B70002D2D2D2D2D2D2D2D2D2D2D2D55534D4103
:102B800052542056332E332D2D2D2D2D2D2D2D2D00
:102B90002D2D2D2D2D2D2D2D2D2D2D2D2D2D2D2072
:102BA0000D0A00002020202055534D415254CAC721
:102BB000D3C9414C49454E54454BBFAAB7A2B5C4F1
:102BC000D2BBB8F6C1E9C7C9B5C4B4AEBFDAB5F770
:102BD000CAD4BBA5BDBBD7E9BCFE2CCDA8B9FD208E
:102BE0000D0A0000CBFC2CC4E3BFC9D2D4CDA8B9D8
:102BF000FDB4AEBFDAD6FACAD6B5F7D3C3B3CCD0DC
:102C0000F2C0EFC3E6B5C4C8CEBACEBAAFCAFD2C87
:102C1000B2A2D6B4D0D02ED2F2B4CB2CC4E3BFC96A
:102C20000D0A0000D2D4CBE6D2E2B8FCB8C4BAAFE9
:102C3000CAFDB5C4CAE4C8EBB2CECAFD28D6A7B354
:102C4000D6CAFDD7D62831302F3136BDF8D6C62C9E
:102C5000D6A7B3D6B8BACAFD29A1A2D7D6B7FBB4B6
:102C6000AE0D0A00A1A2BAAFCAFDC8EBBFDAB5D853
:102C7000D6B7B5C8D7F7CEAAB2CECAFD292CB5A50E
:102C8000B8F6BAAFCAFDD7EEB6E0D6A7B3D63130A4
:102C9000B8F6CAE4C8EBB2CECAFD2CB2A2D6A7B32E
:102CA000D60D0A00BAAFCAFDB7B5BBD8D6B5CFD4DA
:102CB000CABE2ED6A7B3D6B2CECAFDCFD4CABEBD29
:102CC000F8D6C6C9E8D6C3B9A6C4DC2CD6A7B3D6F5
:102CD000BDF8D6C6D7AABBBBB9A6C4DC2E0D0A0068
:102CE000BCBCCAF5D6A7B3D63A7777772E6F706596
:102CF0006E6564762E636F6D0D0A000055534D416D
:102D00005254D3D037B8F6CFB5CDB3C3FCC1EE28FB
:102D1000B1D8D0EBD0A1D0B4293A0D0A0000000000
:102D20003F3A202020202020BBF1C8A1B0EFD6FAE6
:102D3000D0C5CFA20D0A000068656C703A20202033
:102D4000BBF1C8A1B0EFD6FAD0C5CFA20D0A0000E2
:102D50006C6973743A202020BFC9D3C3B5C4BAAF1D
:102D6000CAFDC1D0B1ED0D0A0A00000069643A2025
:102D700020202020BFC9D3C3BAAFCAFDB5C449447F
:102D8000C1D0B1ED0D0A0A006865783A20202020F4
:102D9000B2CECAFD3136BDF8D6C6CFD4CABE2CBA23
:102DA000F3B8FABFD5B8F12BCAFDD7D6BCB4D6B4A8
:102DB000D0D0BDF8D6C6D7AABBBB0D0A0A0000000A
:102DC0006465633A20202020B2CECAFD3130BDF8C0
:102DD000D6C6CFD4CABE2CBAF3B8FABFD5B8F12B39
:102DE000CAFDD7D6BCB4D6B4D0D0BDF8D6C6D7AA03
:102DF000BBBB0D0A0A00000072756E74696D653AFE
:102E0000312CBFAAC6F4BAAFCAFDD4CBD0D0BCC651
:102E1000CAB13B302CB9D8B1D5BAAFCAFDD4CBD0EA
:102E2000D0BCC6CAB13B0D0A0A000000C7EBB0B463
:102E3000D5D5B3CCD0F2B1E0D0B4B8F1CABDCAE4B4
:102E4000C8EBBAAFCAFDC3FBBCB0B2CECAFDB2A2DA
:102E5000D2D4BBD8B3B5BCFCBDE1CAF82E0D0A0074
:102E60002D2D2D2D2D2D2D2D2D2D2D2D2D2D2D2D92
:102E70002D2D2D2D2D2D2D2D2D2D414C49454E54D3
:102E8000454B2D2D2D2D2D2D2D2D2D2D2D2D2D2D3C
:102E90002D2D2D2D2D2D2D2D2D2D2D200D0A00000C
:102EA0002D2D2D2D2D2D2D2D2D2D2D2D2D2D2D2D52
:102EB0002D2D2D2D2D2D2D2D2DBAAFCAFDC7E5B5EC
:102EC000A52D2D2D2D2D2D2D2D2D2D2D2D2D2D2DBA
:102ED0002D2D2D2D2D2D2D2D2D2D2D2D200D0A009F
:102EE00025730D0A0000000050A0FEF775FE0C9639
:102EF000207D00281BD99DF83010206805EBC1010A
:102F000002AB405803AA04A9FFF700FB9DF830105C
:102F1000206850F8312004A954A0FEF75DFE9DF80A
:102F20003000401CC0B20C90217D8142E3D8AFF24A
:102F3000D030FEF751FE73E0AFF2DC30FEF74CFE0E
:102F40000CAA04A93846FFF76BFA9DF8300010B1BF
:102F50000DB00220F0BD01A904A8FFF7DDFC0C9024
:102F600020B1042807D00DB00220F0BD44A0019983
:102F7000FEF732FE04E045A0FEF72EFE0120E075CC
:102F800041A0FEF729FE4BE03FA0FEF725FE0CAA6C
:102F900004A93846FFF744FA9DF8300010B10DB08F
:102FA0000220F0BD01A904A8FFF7B6FC0C9020B1E7
:102FB000042807D00DB00220F0BD39A00199FEF71A
:102FC0000BFE03E039A0FEF707FEE6752EA0FEF724
:102FD00003FE25E02CA0FEF7FFFD0CAA04A938464D
:102FE000FFF71EFA9DF8300010B10DB00220F0BDC1
:102FF00001A904A8FFF790FC0C9010B10DB00220BD
:10300000F0BD0198C0B284F8EC0018B12CA0FEF716
:10301000E3FD02E031A0FEF7DFFD1BA0FEF7DCFDC3
:103020000DB00020F0BD0DB00120F0BD2D2D2D2DD7
:103030002D2D2D2D2D2D2D2D2D2D2D2D2D2D2D2DC0
:103040002D2D2D2D2DBAAFCAFD204944202D2D2D1B
:103050002D2D2D2D2D2D2D2D2D2D2D2D2D2D2D2DA0
:103060002D2D2D2D2D2D2D2D200D0A0025732069A0
:10307000642069733A0D0A3058253038580D0A001B
:103080004845583A305825580D0A00003136BDF8E9
:10309000D6C6B2CECAFDCFD4CABE210D0A000000EA
:1030A0004445433A256C750D0A0000003130BDF8E7
:1030B000D6C6B2CECAFDCFD4CABE210D0A000000CA
:1030C00052756E2054696D652043616C63756C6147
:1030D00074696F6E204F4E0D0A00000052756E200D
:1030E00054696D652043616C63756C6174696F6EC2
:1030F000204F46460D0A00000160704700000000A6
:103100000000000001020304060708090000000097
:10311000010203043F00000064656300696400006D
:1031200072756E74696D650068656C7000000000F2
:103130006C6973740000000068657800766F6964DC
:103140002077726974655F61646472287533322018
:10315000616464722C7533322076616C2900000042
:1031600075333220726561645F61646472287533FF
:103170003220616464722900983100080000002048
:103180006C0100008A020008E03100086C01002098
:1031900084110000081C000851E324F40217FF0208
:1031A0001A011314311B0828041A30041A1C041ABB
:1031B00038041A18041A200413F1201B086008139D
:1031C000F9301B083C0822641420F1271B08F5186D
:1031D000139121140855280B1B08025E01C600003C
:040000050800018965
:00000001FF
